:020000040000FA
:060000007EEF01F012008A
:020006000000F8
:06000800C2EF00F012003F
:02000E00D9CF48
:10001000E6FFE1CFD9FF83E94CE800EBDDF001EB2F
:10002000DEF00001D890DD37DE37C00EDD27000E90
:10003000DE23DDC0F3FFDEC0F4FF00D04DE9E7CFE3
:10004000D9FF1200D9CFE6FFE1CFD9FF82E90050F6
:100050000001DE6BC00FDD6F000EDE23DDC0F3FF9D
:10006000DEC0F4FF00D041E9E7CFD9FF1200000164
:10007000D15100D01200D9CFE6FFE1CFD9FF87E9F7
:1000800046E883EB07F084EB08F085EB09F080EBA2
:100090000AF081EB0BF082EB0CF007EBDDF008EBE4
:1000A000DEF009EBDFF00AEBE0F00BEBE1F00CEB3C
:1000B000E2F0D9CFE9FFDACFEAFF05E8E2C0EDFFD1
:1000C000E1C0EDFFE0C0EDFFDFC0EDFFDEC0EDFF02
:1000D000DDC0EFFF00D047E9E7CFD9FF1200D9CF4D
:1000E000E6FFE1CFD9FF82E941E8005035E0BFDF0C
:1000F000026ED950020FE96EDACFEAFFEF50010B22
:100100000AE00001D26BD1918A50010B02E08A8E85
:1001100001D08A9E03D00001010ED26FC00EE66EA0
:10012000000EE66E1A0EE66E030EE66E20EC01F08F
:1001300044E900090EE1030EE66EE66A160EE66E6D
:10014000030EE66EC30EE66E000EE66E40EC01F0A6
:1001500046E9D2C0D0F0C9D742E9E7CFD9FF1200B3
:100160000001D16B200EF26E840EF16ED08ED76A34
:10017000D66A820ED56EF28E936A010EE66EAFDFFE
:1001800041E91200DACFE4FFE2CFDAFFE652F2A44F
:1001900004D0F2940001D1818A70E552E5CFDAFFF4
:0201A00011004C
:0E01A200060EF66E000EF76E000EF86E0001EF
:1001B0000900F550D86F0900F550D96F03E1D867F1
:1001C00001D03DD00900F550D36F0900F550D46F30
:1001D0000900F550D56F09000900F550E96E0900D6
:1001E000F550EA6E090009000900F550D66F0900C4
:1001F000F550D76F09000900F6CFDAF0F7CFDBF042
:10020000F8CFDCF0D3C0F6FFD4C0F7FFD5C0F8FFBD
:100210000001D65302E1D75307E00900F550EE6E16
:10022000D607F8E2D707F9D7DAC0F6FFDBC0F7FF49
:10023000DCC0F8FF0001D807000ED95BBFD7120061
:10024000D9CFE6FFDACFE6FFFA0EE3CFD9FFFB0EF8
:10025000E3CFDAFFFC0EE3CFE9FFFD0EE3CFEAFFC9
:10026000DE50EF5C02E1EE66FBD7F36EFF0EE3CFEC
:10027000DAFFE552FF0EE3CFD9FFE552F35012004B
:10028000D9CFE6FFDACFE6FFFA0EE3CFD9FFFB0EB8
:10029000E3CFDAFFFC0EE3CFE9FFFD0EE3CFEAFF89
:1002A000E9CFF3FFEACFF4FFF80EE35003E1F90ED4
:1002B000E3500BE0F80EE30602E2F90EE306DECFB0
:1002C000EFFFEE66F1D7DD52EFD7FF0EE3CFDAFF97
:0C02D000E552FF0EE3CFD9FFE55212000B
:0402DC00000EF36EAF
:1002E00000EE00F0010E01D81200EA6002D0EE6AC2
:0C02F000FCD7F350E9601200EE6AFCD766
:0402FC0010EE80F090
:1003000020EE80F0F86AD1EC00F08FEC01F0B0EC58
:0603100000F0FBD7120013
:0803160064656600616263008A
:02031E001200CB
:020000040030CA
:0100010002FC
:01000600C138
:00000001FF
